{
  "contractName": "Faucet",
  "abi": [
    {
      "inputs": [],
      "name": "numberOfFunders",
      "outputs": [
        {
          "internalType": "uint256",
          "name": "",
          "type": "uint256"
        }
      ],
      "stateMutability": "view",
      "type": "function"
    },
    {
      "inputs": [],
      "name": "owner",
      "outputs": [
        {
          "internalType": "address",
          "name": "",
          "type": "address"
        }
      ],
      "stateMutability": "view",
      "type": "function"
    },
    {
      "stateMutability": "payable",
      "type": "receive"
    },
    {
      "inputs": [],
      "name": "emitLog",
      "outputs": [
        {
          "internalType": "bytes32",
          "name": "",
          "type": "bytes32"
        }
      ],
      "stateMutability": "pure",
      "type": "function"
    },
    {
      "inputs": [
        {
          "internalType": "address",
          "name": "newOwner",
          "type": "address"
        }
      ],
      "name": "transferOwnership",
      "outputs": [],
      "stateMutability": "nonpayable",
      "type": "function"
    },
    {
      "inputs": [],
      "name": "addFunds",
      "outputs": [],
      "stateMutability": "payable",
      "type": "function"
    },
    {
      "inputs": [
        {
          "internalType": "uint256",
          "name": "withdrawAmount",
          "type": "uint256"
        }
      ],
      "name": "withdraw",
      "outputs": [],
      "stateMutability": "nonpayable",
      "type": "function"
    },
    {
      "inputs": [],
      "name": "getAllFunders",
      "outputs": [
        {
          "internalType": "address[]",
          "name": "",
          "type": "address[]"
        }
      ],
      "stateMutability": "view",
      "type": "function"
    },
    {
      "inputs": [
        {
          "internalType": "uint256",
          "name": "index",
          "type": "uint256"
        }
      ],
      "name": "getFunderAtIndex",
      "outputs": [
        {
          "internalType": "address",
          "name": "",
          "type": "address"
        }
      ],
      "stateMutability": "view",
      "type": "function"
    }
  ],
  "bytecode": "0x608060405234801561001057600080fd5b50336000806101000a81548173ffffffffffffffffffffffffffffffffffffffff021916908373ffffffffffffffffffffffffffffffffffffffff160217905550610aec806100606000396000f3fe60806040526004361061007f5760003560e01c8063c218deca1161004e578063c218deca14610114578063dc79a7fc14610151578063f2fde38b1461017c578063f42c13bf146101a557610086565b80632e1a7d4d1461008b5780636fbbb55d146100b45780638da5cb5b146100df578063a26759cb1461010a57610086565b3661008657005b600080fd5b34801561009757600080fd5b506100b260048036038101906100ad919061070e565b6101d0565b005b3480156100c057600080fd5b506100c96102f5565b6040516100d6919061084a565b60405180910390f35b3480156100eb57600080fd5b506100f461043b565b604051610101919061082f565b60405180910390f35b61011261045f565b005b34801561012057600080fd5b5061013b6004803603810190610136919061070e565b61057f565b604051610148919061082f565b60405180910390f35b34801561015d57600080fd5b506101666105bc565b60405161017391906108c7565b60405180910390f35b34801561018857600080fd5b506101a3600480360381019061019e91906106e5565b6105c2565b005b3480156101b157600080fd5b506101ba610693565b6040516101c7919061086c565b60405180910390f35b60008054906101000a900473ffffffffffffffffffffffffffffffffffffffff1673ffffffffffffffffffffffffffffffffffffffff163373ffffffffffffffffffffffffffffffffffffffff161461025e576040517f08c379a000000000000000000000000000000000000000000000000000000000815260040161025590610887565b60405180910390fd5b8067016345785d8a00008111156102aa576040517f08c379a00000000000000000000000000000000000000000000000000000000081526004016102a1906108a7565b60405180910390fd5b3373ffffffffffffffffffffffffffffffffffffffff166108fc839081150290604051600060405180830381858888f193505050501580156102f0573d6000803e3d6000fd5b505050565b6060600060015467ffffffffffffffff81111561033b577f4e487b7100000000000000000000000000000000000000000000000000000000600052604160045260246000fd5b6040519080825280602002602001820160405280156103695781602001602082028036833780820191505090505b50905060005b600154811015610433576003600082815260200190815260200160002060009054906101000a900473ffffffffffffffffffffffffffffffffffffffff168282815181106103e6577f4e487b7100000000000000000000000000000000000000000000000000000000600052603260045260246000fd5b602002602001019073ffffffffffffffffffffffffffffffffffffffff16908173ffffffffffffffffffffffffffffffffffffffff1681525050808061042b90610972565b91505061036f565b508091505090565b60008054906101000a900473ffffffffffffffffffffffffffffffffffffffff1681565b6000339050600260008273ffffffffffffffffffffffffffffffffffffffff1673ffffffffffffffffffffffffffffffffffffffff16815260200190815260200160002060009054906101000a900460ff1661057c576000600160008154809291906104ca90610972565b9190505590506001600260008473ffffffffffffffffffffffffffffffffffffffff1673ffffffffffffffffffffffffffffffffffffffff16815260200190815260200160002060006101000a81548160ff021916908315150217905550816003600083815260200190815260200160002060006101000a81548173ffffffffffffffffffffffffffffffffffffffff021916908373ffffffffffffffffffffffffffffffffffffffff160217905550505b50565b60006003600083815260200190815260200160002060009054906101000a900473ffffffffffffffffffffffffffffffffffffffff169050919050565b60015481565b60008054906101000a900473ffffffffffffffffffffffffffffffffffffffff1673ffffffffffffffffffffffffffffffffffffffff163373ffffffffffffffffffffffffffffffffffffffff1614610650576040517f08c379a000000000000000000000000000000000000000000000000000000000815260040161064790610887565b60405180910390fd5b806000806101000a81548173ffffffffffffffffffffffffffffffffffffffff021916908373ffffffffffffffffffffffffffffffffffffffff16021790555050565b60007f48656c6c6f20576f726c64210000000000000000000000000000000000000000905090565b6000813590506106ca81610a88565b92915050565b6000813590506106df81610a9f565b92915050565b6000602082840312156106f757600080fd5b6000610705848285016106bb565b91505092915050565b60006020828403121561072057600080fd5b600061072e848285016106d0565b91505092915050565b6000610743838361074f565b60208301905092915050565b6107588161092c565b82525050565b6107678161092c565b82525050565b6000610778826108f2565b610782818561090a565b935061078d836108e2565b8060005b838110156107be5781516107a58882610737565b97506107b0836108fd565b925050600181019050610791565b5085935050505092915050565b6107d48161093e565b82525050565b60006107e760218361091b565b91506107f2826109ea565b604082019050919050565b600061080a60238361091b565b915061081582610a39565b604082019050919050565b61082981610968565b82525050565b6000602082019050610844600083018461075e565b92915050565b60006020820190508181036000830152610864818461076d565b905092915050565b600060208201905061088160008301846107cb565b92915050565b600060208201905081810360008301526108a0816107da565b9050919050565b600060208201905081810360008301526108c0816107fd565b9050919050565b60006020820190506108dc6000830184610820565b92915050565b6000819050602082019050919050565b600081519050919050565b6000602082019050919050565b600082825260208201905092915050565b600082825260208201905092915050565b600061093782610948565b9050919050565b6000819050919050565b600073ffffffffffffffffffffffffffffffffffffffff82169050919050565b6000819050919050565b600061097d82610968565b91507fffffffffffffffffffffffffffffffffffffffffffffffffffffffffffffffff8214156109b0576109af6109bb565b5b600182019050919050565b7f4e487b7100000000000000000000000000000000000000000000000000000000600052601160045260246000fd5b7f4f6e6c79206f776e65722063616e2063616c6c20746869732066756e6374696f60008201527f6e00000000000000000000000000000000000000000000000000000000000000602082015250565b7f43616e6e6f74207769746864726177206d6f7265207468616e20302e3120657460008201527f6865720000000000000000000000000000000000000000000000000000000000602082015250565b610a918161092c565b8114610a9c57600080fd5b50565b610aa881610968565b8114610ab357600080fd5b5056fea264697066735822122080d1a23a77dbe31e0a72a545d52ff252d8a018ab92a337237ee29671050ca79464736f6c63430008040033",
  "immutableReferences": {},
  "source": "// SPDX-License-Identifier: MIT\npragma solidity >=0.4.22 <0.9.0;\n\nimport \"./Owned.sol\";\nimport \"./Logger.sol\";\nimport \"./IFaucet.sol\";\n\ncontract Faucet is Owned, Logger, IFaucet {\n\n    uint public numberOfFunders;\n    \n    mapping(address => bool) private funders;\n    mapping(uint => address) private lutFunders;\n\n    modifier limitWithdraw(uint withdrawAmount) {\n        require(withdrawAmount <= 100000000000000000, \"Cannot withdraw more than 0.1 ether\");\n        _;\n    }\n\n    function emitLog() public pure override returns(bytes32) {\n        return \"Hello World!\";\n    }\n\n    receive() external payable {}\n\n    function transferOwnership(address newOwner) external onlyOwner {\n        owner = newOwner;\n    }\n\n    function addFunds() override external payable {\n        address funder = msg.sender;\n        if(!funders[funder]) {\n            uint index = numberOfFunders++;\n            funders[funder] = true;\n            lutFunders[index] = funder;\n        }\n    }\n\n    function withdraw(uint withdrawAmount) override external onlyOwner limitWithdraw(withdrawAmount){\n        payable(msg.sender).transfer(withdrawAmount);\n    }\n\n    function getAllFunders() external view returns(address[] memory) {\n        address[] memory _funders = new address[](numberOfFunders);\n        for(uint i = 0; i < numberOfFunders; i++) {\n            _funders[i] = lutFunders[i];\n        }\n        return _funders;\n    }\n\n    function getFunderAtIndex(uint index) external view returns(address) {\n        return lutFunders[index];\n    }\n}",
  "sourcePath": "/Users/behroozpayoon/Workspace/Dapp/faucet/contracts/Faucet.sol",
  "compiler": {
    "name": "solc",
    "version": "0.8.4+commit.c7e474f2.Emscripten.clang"
  },
  "schemaVersion": "3.4.7",
  "updatedAt": "2022-05-13T13:49:37.126Z",
  "devdoc": {
    "kind": "dev",
    "methods": {},
    "version": 1
  },
  "userdoc": {
    "kind": "user",
    "methods": {},
    "version": 1
  }
}